:020000040000FA
:100000000C948D0D0C94B50D0C94B50D0C94B50D90
:100010000C94B50D0C94B50D0C94B50D0C94B50D58
:100020000C94B50D0C94B50D0C94B50D0C94B50D48
:100030000C94B50D0C94B50D0C94B50D0C94B50D38
:100040000C9436230C94B50D0C9404230C94DE22EE
:100050000C94B50D0C94B50D0C94B50D0C94B50D18
:100060000C9480230C94B50D00000000003E5B4F03
:100070005B3E3E6B4F6B3E1C3E7C3E1C183C7E3C08
:10008000181C577D571C1C5E7F5E1C00183C180016
:10009000FFE7C3E7FF0018241800FFE7DBE7FF30A6
:1000A000483A060E2629792926407F050507407F14
:1000B00005253F5A3CE73C5A7F3E1C1C08081C1C87
:1000C0003E7F14227F22145F5F005F5F06097F017D
:1000D0007F006689956A606060606094A2FFA29468
:1000E00008047E040810207E201008082A1C080836
:1000F0001C2A08081E101010100C1E0C1E0C303884
:100100003E3830060E3E0E06000000000000005F84
:1001100000000007000700147F147F14242A7F2AA0
:100120001223130864623649562050000807030062
:10013000001C2241000041221C002A1C7F1C2A08AE
:10014000083E080800807030000808080808000011
:1001500060600020100804023E5149453E00427F85
:10016000400072494949462141494D331814127FD4
:100170001027454545393C4A494931412111090774
:100180003649494936464949291E000014000000F5
:1001900040340000000814224114141414140041C7
:1001A00022140802015909063E415D594E7C121184
:1001B000127C7F494949363E414141227F414141BC
:1001C0003E7F494949417F090909013E4141517337
:1001D0007F0808087F00417F41002040413F017FA8
:1001E000081422417F404040407F021C027F7F0470
:1001F00008107F3E4141413E7F090909063E4151B9
:10020000215E7F09192946264949493203017F01A8
:10021000033F4040403F1F2040201F3F4038403FA9
:10022000631408146303047804036159494D4300BF
:100230007F4141410204081020004141417F0402F6
:10024000010204404040404000030708002054548D
:1002500078407F284444383844444428384444286B
:100260007F385454541800087E090218A4A49C78BE
:100270007F0804047800447D40002040403D007F1A
:100280001028440000417F40007C047804787C08FA
:100290000404783844444438FC18242418182424CE
:1002A00018FC7C08040408485454542404043F44B3
:1002B000243C4040207C1C2040201C3C4030403CE2
:1002C00044281028444C9090907C4464544C440042
:1002D00008364100000077000000413608000201A6
:1002E0000204023C2623263C1EA1A161123A404092
:1002F000207A38545455592155557941225454780F
:1003000042215554784020545579400C1E527212A7
:100310003955555559395454545939555454580030
:1003200000457C410002457D420001457C407D1234
:1003300011127DF0282528F07C5455450020545496
:100340007C547C0A097F4932494949323A44444441
:100350003A324A4848303A4141217A3A424020787C
:10036000009DA0A07D3D4242423D3D4040403D3C7D
:1003700024FF2424487E4943662B2FFC2F2BFF09A2
:1003800029F620C0887E0903205454794100004496
:100390007D413048484A32384040227A007A0A0A81
:1003A000727D0D19317D2629292F282629292926F4
:1003B00030484D4020380808080808080808382F39
:1003C00010C8ACBA2F102834FA00007B00000814C3
:1003D0002A142222142A14085500550055AA55AA99
:1003E00055AAFF55FF55FF000000FF00101010FF39
:1003F00000141414FF001010FF00FF1010F010F094
:10040000141414FC001414F700FF0000FF00FF1484
:1004100014F404FC141417101F10101F101F1414D0
:10042000141F00101010F0000000001F101010101A
:100430001F10101010F010000000FF10101010100E
:1004400010101010FF10000000FF140000FF00FF4C
:1004500000001F10170000FC04F4141417101714E8
:1004600014F404F40000FF00F7141414141414140A
:10047000F700F7141414171410101F101F1414147D
:10048000F4141010F010F000001F101F0000001FE7
:1004900014000000FC140000F010F01010FF10FF1A
:1004A000141414FF141010101F00000000F010FFAF
:1004B000FFFFFFFFF0F0F0F0F0FFFFFF0000000093
:1004C00000FFFF0F0F0F0F0F3844443844FC4A4A17
:1004D0004A347E02020606027E027E0263554941CC
:1004E000633844443C04407E201E2006027E020203
:1004F00099A5E7A5991C2A492A1C4C7201724C3017
:100500004A4D4D303048784830BC625A463D3E49ED
:100510004949007E0101017E2A2A2A2A2A44445F91
:10052000444440514A444040444A51400000FF0185
:1005300003E080FF000008086B6B08361236243693
:10054000060F090F060000181800000010100030F8
:1005500040FF0101001F01011E00191D1712003C80
:100560003C3C3C000000000000000000240027008C
:100570002A000000000023002600290000000008D7
:10058000000201000003040700000000000000005A
:1005900004E010021C07123732292D29252B3900BF
:1005A000010310E110031D07062E2C292D2E2E37D6
:1005B0003F0000021013800A298064022A04000010
:1005C000007F2B040000007F0F0180961180FFB197
:1005D00003012C2DB203012C2DB306012C2D012C6F
:1005E0002DB40107C003A20284C101C5C2020A00E2
:1005F000C3028A2AC4028AEEC5010E20003601C851
:100600003A010500000000000000000000000000AA
:1006100000000000000000000000000000000000DA
:1006200000000000000000000000000000000000CA
:1006300000000000000000000000000000000000BA
:1006400000000000000000000000000000000000AA
:10065000000000000000000000000000000000009A
:1006600000000000FFC000000000000003FE0000CA
:10067000FFC000000000000007FF0000FFC00000F6
:100680000000000003FE0000F50000000000000074
:1006900002AF0000E000000000000000000E0000BB
:1006A000F000000000000000000F0000E00000006B
:1006B00014000000000E0000F0000003FFC0000066
:1006C000000F0000E000001FFFFBE000000E000034
:1006D000E000003FFFFFF800000F0000000000FFF7
:1006E00080FFFE0000000000000001F8003FFF0056
:1006F00000000000000003F000081F800000000060
:10070000000007C0000007C00000000000000780D4
:10071000000003E00000000000000F00000001E006
:100720000000000000000F00000000F000000000CA
:1007300000001E00000000F00000000000001E008D
:10074000000000780000000000001C00000000789D
:100750000000000000001C00000000380000000045
:1007600000001C00000000380000000000003C00F9
:10077000000000780000000000001C0000000038AD
:100780000000000000001C000000007800000000D5
:1007900000001C00000000380000000000001C00E9
:1007A000000000780000000000001E00000000783B
:1007B0000000000000001C000000007800000000A5
:1007C00000001E00000000780000000000001C0077
:1007D000000000780000000000001E00000000780B
:1007E0000000000000001C0000000070000000007D
:1007F00000001E00000000780000000000001C0047
:10080000000000780000000000001E0000000078DA
:100810000000000000001C00000000780000000044
:1008200000001E00000000700000000000000F002B
:10083000000000F00000000000000F00000001F0C8
:1008400000000000000007C0000003E000000000FE
:10085000000007C0000007C000000000000001C049
:100860000000078000000000000001E00000070019
:1008700000000000000001E000000F000000000088
:10088000000000F000000F0000000000000000F079
:1008900000001E00000000000000007800003E0084
:1008A000000000000000007C00003C000000000090
:1008B0000000003C00007800000000000000001E66
:1008C0000000F800000000000000001F0000F00021
:1008D000000000000000000F8001E00000000000A8
:1008E000000000078001E000000000000000000799
:1008F0008003C00000000000000000078001C0006D
:1009000000000000000000078001C000000000009F
:10091000000000078001C000000000000000000788
:100920000001E00000000000000000070001E000FE
:10093000000000000000000F0001E00000000000C7
:100940000000000F0000E000000000000000001E9A
:100950000000F000000000000000003E0000F80071
:1009600000000000000000FC00007E00000000000D
:10097000000003F800003F800000000000000FF0BE
:1009800000000FF00000000000007FC0000007FE24
:10099000000000000001FF00000000FFC000000098
:1009A0004007F8000000003FE0040000E01FE00006
:1009B00000000007F80F0000F03F000000000000FA
:1009C000F80E0000E03E0000000000003C0F0000B8
:1009D000F000000000000000000E0000E000000039
:1009E00000000000000F0000F00000000000000008
:1009F000000E0000FFC000000000000003FF000028
:100A0000FFC000000000000007FE0000FFC0000063
:100A10000000000003FF000055400000000000003F
:100A200002AA00000000000000000000000000001A
:100A300000000000000000000000000000000000B6
:100A400000000000000000000000000000000000A6
:100A50000000000000000000000000000000000096
:100A60000000000000000000000000000000000086
:100A70000000000000000000000000000000000076
:100A80000000000000000000000000000000000066
:100A90000000000000000000000000000000000056
:100AA0000000000000000000000000000000000046
:100AB0000000000000000000000000000000000036
:100AC0000000000000000000000000000000000026
:100AD0000000000000000000000000000000000016
:100AE0000000000000000000000000000000000006
:100AF00000000000000000000000000000000000F6
:100B000000000000000000000000000000000000E5
:100B100000000000000000000000000000000000D5
:100B200000000000000000000000000000000000C5
:100B300000000000000000000000000000000000B5
:100B400000000000000000000000000000000000A5
:100B50000000000000000000000000000000000095
:100B60000000000000000000000000000000000085
:100B70000000000000000000000000000000000075
:100B800000000FFFFF8000000000000000000FF0D9
:100B90001F8000000000000000000FFFFF80000029
:100BA0000000000000000AAAAA8000000000000067
:100BB00000000555550000000000000000000FFF78
:100BC000FF8000000000000000000FFFFF80000019
:100BD0000000000000000FFFFF8000000000000088
:100BE00000000FFFFF8000000000000000000FFF6A
:100BF000FF8000000000000000000FFFFF800000E9
:100C00000000000000000FFFFF8000000000000057
:100C100000000FFFFF8000000000000000000FFF39
:100C2000FFDC00000000000000000FFA5FBC01C7FD
:100C30001400000000000FE5AFBC03EFBC40000053
:100C400000000F13F3D801EFBEF00000000008EB26
:100C5000FDB003EFBDF00000000007383F8003EF58
:100C6000BEF0000000003FFBCFB803FFFFF0000024
:100C70000000FFF7F7BC03FFFFF000000001FFCC0E
:100C8000FFBC03FFFFF000000003FE3B7FB803FF43
:100C9000FFF000000003F8FB7FC003FFFFF000003F
:100CA0000007FBFA7F901BFFFFF000000007F7FD35
:100CB000FF781BFFFFF000000007FBFFFFB83BFFC2
:100CC000FFE00000000FF7FFFF7C3BFFFFF000009C
:100CD000000FFBFFFF901FFFFFE00000000FFBFF76
:100CE000FFC01FFFFFF00000000FFBFFFFB81FFF5A
:100CF000FFE00000000FF7FFFFB81FFFFFE000005C
:100D0000000FFBFFFFB80FFFFFE00000000FF7FF31
:100D1000FF800FFFFFC00000000FF7FFFF800FFFF5
:100D2000FFC00000000FF155550007FFFF800000D5
:100D3000000FEEAAAA8007FFFF800000000FF7FF58
:100D4000FF8003FFFF000000001FEFFFFF8001FF97
:100D5000FF000000001FF7FFFF8000FFFE00000003
:100D6000003FF4000000007FFE000000007FFFFE57
:100D7000000000701E00000000FFFFFC0000006F7C
:100D8000EC00000000FFFFF80000001FF000000072
:100D900001FFFFF0000000DF5A00000003FFFFC06A
:100DA000000000DF5700000007FFFE00000001D92F
:100DB0005B0000000FFFF800000000DF560000009D
:100DC0000FFFF8000000009FBA00000003FFF000D2
:100DD0000000000FF0000000007FE000000000674E
:100DE000CE000000001FE000000000783E00000080
:100DF0000003C0000000007FFE0000000000400073
:100E00000000003FFE0000000000000000000000A5
:100E100000000000000000000000000000000000D2
:100E200000000000000000000000000000000000C2
:100E300000000000000000000000000000000000B2
:100E400000000000000000000000000000000000A2
:100E50000000000000000000000000000000000092
:100E60000000000000000000000000000000000082
:100E70000000000000000000000000000000000072
:100E80000000000000000000000000000000000062
:100E90000000000000000000000000000000000052
:100EA0000000000000000000000000000000000042
:100EB0000000000000000000000000000000000032
:100EC0000000000000000000000000000000000022
:100ED0000000000000000000000000000000000012
:100EE0000000000000000000000000000000000002
:100EF00000000000000000000000000000000000F2
:100F000000000000000000000000000000000000E1
:100F100000000000000000000000000000000000D1
:100F200000000000000000000018003C003C003CF5
:100F30000018001800000018001800000000000051
:100F4000000000000000000000660066006600006F
:100F50000000000000000000000000000000000091
:100F60000000000000000000006C006C00FE006C3F
:100F7000006C006C00FE006C006C000000000000C3
:100F80000000000000180018003C00660006000C7D
:100F90000018003000600066003C001800180000D7
:100FA000000000000000000E001B005B006E00301F
:100FB0000018000C007600DA00D800700000000075
:100FC0000000000000000000001C00360036001C7D
:100FD000000600F60066006600DC0000000000006D
:100FE00000000000000000000018001800180000B9
:100FF00000000000000000000000000000000000F1
:101000000000000000000000003000180018000C74
:10101000000C000C000C000C001800180030000040
:101020000000000000000000000C00180018003054
:10103000003000300030003000180018000C0000B4
:10104000000000000000000000000000006C0038FC
:1010500000FE0038006C00000000000000000000EE
:101060000000000000000000000000000018001850
:10107000007E0018001800000000000000000000C2
:101080000000000000000000000000000000000060
:101090000000000000000038003800300018000098
:1010A0000000000000000000000000000000000040
:1010B000007E0000000000000000000000000000B2
:1010C0000000000000000000000000000000000020
:1010D00000000000000000380038000000000000A0
:1010E00000000000000000000060006000300030E0
:1010F00000180018000C000C00060006000000009C
:101100000000000000000000007800CC00EC00ECC3
:1011100000CC00DC00DC00CC007800000000000007
:10112000000000000000000000300038003E0030E9
:1011300000300030003000300030000000000000BF
:101140000000000000000000003C00660066006037
:1011500000300018000C0006007E000000000000B7
:101160000000000000000000003C00660066006017
:101170000038006000660066003C000000000000CF
:101180000000000000000000000C000C006C006C6F
:10119000006C006600FE00600060000000000000BF
:1011A0000000000000000000007E000600060006AF
:1011B000003E006000600030001E000000000000E3
:1011C000000000000000000000380018000C003E85
:1011D0000066006600660066003C0000000000003B
:1011E0000000000000000000007E006000300030C1
:1011F00000180018000C000C000C0000000000009B
:101200000000000000000000003C00660066006E68
:10121000003C007600660066003C00000000000014
:101220000000000000000000003C00660066006650
:101230000066007C00300018001C00000000000068
:10124000000000000000000000000000003800382E
:10125000000000000000003800380000000000001E
:10126000000000000000000000000000003800380E
:1012700000000000000000380038003000180000B6
:101280000000000000000000006000300018000CAA
:101290000006000C00180030006000000000000094
:1012A0000000000000000000000000000000007EC0
:1012B0000000007E000000000000000000000000B0
:1012C00000000000000000000006000C00180030C4
:1012D000006000300018000C000600000000000054
:1012E0000000000000000000003C006600660030C6
:1012F000001800180000001800180000000000008E
:101300000000000000000000007E00C300C300F3E6
:1013100000DB00DB00F3000300FE00000000000023
:1013200000000000000000000018003C006600669D
:101330000066007E00660066006600000000000097
:101340000000000000000000003E0066006600662D
:10135000003E006600660066003E000000000000DF
:101360000000000000000000003C0066006600066F
:101370000006000600660066003C00000000000059
:101380000000000000000000001E0036006600663D
:101390000066006600660036001E000000000000C7
:1013A0000000000000000000007E000600060006AD
:1013B000003E000600060006007E0000000000005F
:1013C0000000000000000000007E0006000600068D
:1013D000003E0006000600060006000000000000B7
:1013E0000000000000000000003C006600660006EF
:1013F0000006007600660066007C00000000000029
:101400000000000000000000006600660066006644
:10141000007E0066006600660066000000000000B6
:101420000000000000000000003C00180018001838
:101430000018001800180018003C00000000000010
:10144000000000000000000000600060006000601C
:101450000060006000660066003C000000000000C4
:101460000000000000000000006600660036003644
:10147000001E003600360066006600000000000016
:101480000000000000000000000600060006000644
:101490000006000600060006007E000000000000B6
:1014A000000000000000000000C600C600EE00D6EC
:1014B00000D600D600C600C600C60000000000002E
:1014C000000000000000000000C600C600CE00DEE4
:1014D00000F600E600C600C600C6000000000000DE
:1014E0000000000000000000003C0066006600668E
:1014F0000066006600660066003C00000000000018
:101500000000000000000000003E0066006600666B
:10151000003E000600060006000600000000000075
:101520000000000000000000003C0066006600664D
:101530000066006600660066003C00300060000047
:101540000000000000000000003E0066006600662B
:10155000003E0036006600660066000000000000E5
:101560000000000000000000003C00660006000CC7
:101570000018003000600066003C00000000000021
:101580000000000000000000007E00180018001895
:1015900000180018001800180018000000000000D3
:1015A00000000000000000000066006600660066A3
:1015B0000066006600660066003C00000000000057
:1015C0000000000000000000006600660066006683
:1015D000006600660066003C001800000000000085
:1015E000000000000000000000C600C600C600D6D3
:1015F00000D600D6006C006C006C000000000000FB
:10160000000000000000000000660066002C0018CA
:10161000001800340066006600660000000000004C
:101620000000000000000000006600660066006622
:10163000003C00180018001800180000000000000E
:101640000000000000000000007E0060006000302C
:101650000018000C00060006007E000000000000DC
:101660000000000000000000003C000C000C000C1A
:10167000000C000C000C000C000C000C000C003CDA
:10168000000000000000000000060006000C000C36
:1016900000180018003000300060006000000000FA
:1016A0000000000000000000003C0030003000306E
:1016B0000030003000300030003000300030003C9E
:1016C000000000000018003C006600000000000060
:1016D000000000000000000000000000000000000A
:1016E00000000000000000000000000000000000FA
:1016F000000000000000000000000000000000FFEB
:1017000000000000001C0018003000000000000075
:1017100000000000000000000000000000000000C9
:10172000000000000000000000000000003C00601D
:101730000060007C00660066007C00000000000085
:10174000000000000000000000060006003E0066E9
:101750000066006600660066003E000000000000B3
:10176000000000000000000000000000003C0066D7
:101770000006000600060066003C000000000000B5
:10178000000000000000000000600060007C0066B7
:101790000066006600660066007C00000000000035
:1017A000000000000000000000000000003C006697
:1017B0000066007E00060006003C000000000000FD
:1017C00000000000000000000078000C000C000C7D
:1017D000007E000C000C000C000C0000000000005B
:1017E000000000000000000000000000007C006617
:1017F0000066006600660066007C00600060003ED7
:10180000000000000000000000060006003E006628
:1018100000660066006600660066000000000000CA
:10182000000000000000001800180000001E001852
:101830000018001800180018007E000000000000CA
:10184000000000000000003000300000003C0030CC
:101850000030003000300030003000300030001E1A
:1018600000000000000000000006000600660066A0
:101870000036001E00360066006600000000000012
:101880000000000000000000001E001800180018F2
:101890000018001800180018007E0000000000006A
:1018A000000000000000000000000000007E00D6E4
:1018B00000D600D600D600D600C60000000000000A
:1018C000000000000000000000000000003E006674
:1018D000006600660066006600660000000000000A
:1018E000000000000000000000000000003C006656
:1018F0000066006600660066003C00000000000014
:10190000000000000000000000000000003E006633
:101910000066006600660066003E000600060006DF
:10192000000000000000000000000000007C0066D5
:101930000066006600660066007C00600060006073
:1019400000000000000000000000000000660076BB
:10195000000E000600060006000600000000000061
:10196000000000000000000000000000007C0006F5
:101970000006003C00600060003E00000000000027
:101980000000000000000000000C000C007E000CB5
:10199000000C000C000C000C00780000000000009F
:1019A000000000000000000000000000006600666B
:1019B0000066006600660066007C00000000000013
:1019C000000000000000000000000000006600664B
:1019D000006600660066003C001800000000000081
:1019E00000000000000000000000000000C600D65B
:1019F00000D600D600D6006C006C0000000000008D
:101A0000000000000000000000000000006600660A
:101A1000003C0018003C006600660000000000006A
:101A200000000000000000000000000000660066EA
:101A30000066006600660066003C00300018000F7B
:101A4000000000000000000000000000007E0060B8
:101A500000300018000C0006007E000000000000AE
:101A600000000000000000000030001800180018FE
:101A7000000C0006000C00180018001800300000D0
:101A800000000000000000000018001800180018F6
:101A90000018001800180018001800180018001886
:101AA0000000000000000000000C001800180018E2
:101AB000003000600030001800180018000C000012
:101AC0000000000000000000008E00DB007100003C
:101AD0000000000000000000000000000000000006
:101AE00000000001020408102040800102040810D8
:101AF0002001020408102000000000250028002B0F
:101B000000040404040404040402020202020203A6
:101B10000303030303009B24DE2811241FBECFEF21
:101B2000D8E0DEBFCDBF24E0A4ECB1E001C01D923F
:101B3000A33BB207E1F711E0A0E0B1E0E6E1F0E697
:101B400002C005900D92A43CB107D9F71DE0CCE886
:101B5000DDE004C02197FE010E944C2BCB38D10759
:101B6000C9F70E94F1250C94FE2F0C94000096E01A
:101B7000899FD0011124A750BC4F90967C936E93FF
:101B80005F9791E091969C939197E0916604F09114
:101B9000670490916504992339F0309751F08111D1
:101BA00008C0809115040994309719F05C968C91C7
:101BB000FACF0895CF92DF92EF92FF920F931F9387
:101BC00096E0899FF0011124E750FC4F11A2278D68
:101BD00030A12130310551F178F02230310509F47E
:101BE00051C02330310509F452C01F910F91FF906D
:101BF000EF90DF90CF9008956623B9F361E070E035
:101C00000E94B70D2FB7F894809151029091520223
:101C1000A0915302B09154022FBF8093510490932E
:101C20005204A0935304B0935404DFCF9FB7F894A9
:101C3000C0905102D0905202E0905302F0905402B2
:101C40009FBF009151041091520420915304309190
:101C50005404C01AD10AE20AF30A009163041091F5
:101C6000640430E020E00C151D052E053F0550F4FE
:101C700062E070E01F910F91FF90EF90DF90CF90A6
:101C80000C94B70D6111B1CF63E070E0F3CF70E059
:101C900060E0F0CFAF92BF92CF92DF92EF92FF92CF
:101CA0000F931F93CF93DF936C017B018B01040F84
:101CB000151FEB015E01AE18BF08C017D10759F020
:101CC0006991D601ED91FC910190F081E02DC60162
:101CD0000995892B79F7C501DF91CF911F910F915C
:101CE000FF90EF90DF90CF90BF90AF900895FC01F0
:101CF000538D448D252F30E0842F90E0821B930B71
:101D0000541710F0CF96089501970895FC01918D16
:101D1000828D981761F0A28DAE0FBF2FB11D5D9619
:101D20008C91928D9F5F9F73928F90E008958FEFBB
:101D30009FEF0895FC01918D828D981731F0828D6F
:101D4000E80FF11D858D90E008958FEF9FEF0895C6
:101D5000FC01918D228D892F90E0805C9F4F821B2A
:101D600091098F739927089585E593E00E94A80E45
:101D700021E0892B09F420E0822F089580E090E093
:101D8000892B29F00E94B40E81110C940000089553
:101D9000FC01A48DA80FB92FB11DA35ABF4F2C91E0
:101DA000848D90E001968F739927848FA689B789D7
:101DB0002C93A089B1898C91837080648C93938DCE
:101DC000848D981306C00288F389E02D80818F7D71
:101DD00080830895EF92FF920F931F93CF93DF9329
:101DE000EC0181E0888F9B8D8C8D98131AC0E88957
:101DF000F989808185FF15C09FB7F894EE89FF8926
:101E00006083E889F98980818370806480839FBFC3
:101E100081E090E0DF91CF911F910F91FF90EF90C3
:101E20000895F62E0B8D10E00F5F1F4F0F731127D3
:101E3000E02E8C8D8E110CC00FB607FCFACFE8890E
:101E4000F989808185FFF5CFCE010E94C80EF1CFC0
:101E5000EB8DEC0FFD2FF11DE35AFF4FF0829FB782
:101E6000F8940B8FEA89FB8980818062CFCFCF9372
:101E7000DF93EC01888D8823B9F0AA89BB89E889B2
:101E8000F9898C9185FD03C0808186FD0DC00FB658
:101E900007FCF7CF8C9185FFF2CF808185FFEDCFD6
:101EA000CE010E94C80EE9CFDF91CF910895833013
:101EB00081F028F4813099F08230A9F008958730BC
:101EC000A9F08830C9F08430B1F4809180008F7D12
:101ED00003C0809180008F7780938000089584B53F
:101EE0008F7784BD089584B58F7DFBCF8091B0003E
:101EF0008F778093B00008958091B0008F7DF9CFE7
:101F0000CF93DF93282F30E0F901E458FA4F849102
:101F1000F901ED51F54ED491F901EF5FF44EC49102
:101F2000CC23A1F081110E94570FEC2FF0E0EE0FAF
:101F3000FF1FEE58FA4FA591B491EC91ED2381E08B
:101F400090E009F480E0DF91CF91089580E090E087
:101F5000FACF862F0C94800F1F93CF93DF93282FF7
:101F600030E0F901E458FA4F8491F901ED51F54E52
:101F7000D491F901EF5FF44EC491CC23A9F0162F50
:101F800081110E94570FEC2FF0E0EE0FFF1FE95078
:101F9000F54EA591B4918FB7F894EC91111108C04A
:101FA000D095DE23DC938FBFDF91CF911F910895F1
:101FB000DE2BF8CF862F642F0C94AC0FCF93DF93DA
:101FC00090E0FC01ED51F54E24918F5F944EFC01A1
:101FD00084918823C9F090E0880F991FFC01E8598B
:101FE000FA4FA591B491FC01E950F54EC591D491F9
:101FF00061110DC09FB7F8948C91209582238C932A
:102000008881282328839FBFDF91CF910895623074
:1020100051F49FB7F8943C91822F809583238C9341
:10202000E8812E2BEFCF8FB7F894EC912E2B2C93C9
:102030008FBFEACF862F642F0C94DE0F3FB7F89442
:102040008091370290913802A0913902B0913A0202
:1020500026B5A89B05C02F3F19F00196A11DB11D03
:102060003FBFBA2FA92F982F8827BC01CD01620F3F
:10207000711D811D911D42E0660F771F881F991FFA
:102080004A95D1F708958F929F92AF92BF92CF92C7
:10209000DF92EF92FF926B017C010E941E104B01B8
:1020A0005C01C114D104E104F104B9F00E941E10D6
:1020B000681979098A099B09683E73408105910571
:1020C00080F321E0C21AD108E108F10888EE880EF9
:1020D00083E0981EA11CB11CE4CFFF90EF90DF902D
:1020E000CF90BF90AF909F908F9008952091EB017B
:1020F000260F3327331F21323105ECF420910F02D4
:10210000FC0190E080E0243069F082E00895A09125
:10211000EB012191AC0145535E4FA40FB52FB11DCA
:102120002C930196861798F38091EB01680F6093CA
:10213000EB0180E0089581E0089508958FEF9FEF0F
:1021400008958FEF9FEF08958091C40190E09195DD
:10215000819591090895CF93DF93CB01EA01642F14
:102160000E947610CE01DF91CF910895CF93DF9337
:102170001F92CDB7DEB7698361E0CE0101960E9460
:10218000761081E090E00F90DF91CF910895FC01EF
:10219000A5A1B6A18C9192A589238C93A5A1B6A1E6
:1021A0008C9191A5892B8C930895DC019396ED91E8
:1021B000FC919497908198968C91892380830895BF
:1021C000DC019396ED91FC919497908197968C9178
:1021D000892B80830895DC019196ED91FC91929773
:1021E000908196968C91892380830895DC01919645
:1021F000ED91FC919297908195968C91892B80839B
:102200000895CF92DF92EF92FF921F93CF93DF93C7
:10221000EC016A017B018DA9811123C08F2D9927C3
:10222000AA27BB278EBD0DB407FEFDCFC701AA2785
:10223000BB278EBD0DB407FEFDCFBB27AF2D9E2D56
:102240008D2D8EBD0DB407FEFDCFCEBC0DB407FEA7
:10225000FDCFDF91CF911F91FF90EF90DF90CF9056
:1022600008958130B1F410E2CE01F7FE0FC00E9454
:10227000F610CE010E94E010CE010E94D510CC0CC9
:10228000DD1CEE1CFF1C115079F7E3CF0E94EB1010
:10229000F0CFEF8DF8A18F2D9927AA27BB27808338
:1022A000CE010E94C710EF8DF8A1C701AA27BB2756
:1022B0008083CE010E94C710EF8DF8A1BB27AF2D00
:1022C0009E2D8D2D8083CE010E94C710EF8DF8A129
:1022D000C082CE01DF91CF911F91FF90EF90DF90F0
:1022E000CF900C94C710FF920F931F93CF93DF935F
:1022F000EC018B018DA981110EC01EBD0DB407FE2E
:10230000FDCF0EBD0DB407FEFDCFDF91CF911F9124
:102310000F91FF9008958130B1F490E1F92ECE0134
:1023200017FF0EC00E94F610CE010E94E010CE01F1
:102330000E94D510000F111FFA94F110F0CFE5CFD5
:102340000E94EB10F1CFEF8DF8A11083CE010E9417
:10235000C710EF8DF8A10083CE01DF91CF911F91BF
:102360000F91FF900C94C7100F931F93CF93DF939F
:10237000EC01162F8DA9811109C06EBD0DB407FEA9
:10238000FDCFDF91CF911F910F910895813099F486
:1023900008E0CE0117FF0CC00E94F610CE010E948B
:1023A000E010110FCE010E94D510015091F7E9CF36
:1023B0000E94EB10F3CFEF8DF8A16083CE01DF9187
:1023C000CF911F910F910C94C710CF93DF93EC0125
:1023D000ED8DFE8D80819CA989238083CE010E9492
:1023E000B411ED8DFE8D80819BA9892B8083DF91B7
:1023F000CF9108958F929F92AF92BF92CF92DF922A
:10240000EF92FF920F931F93CF93DF93EC0189AD6F
:102410009AAD680F791F8BAD9CAD480F591F2150A5
:102420003109260F371F4901B12CA12CCB01B0E097
:10243000A0E0DC0199278827882A992AAA2ABB2AA2
:10244000680181E0C81AD108C40ED51EF12CE12C18
:1024500070E060E0BA0155274427C42AD52AE62A4D
:10246000F72A6AE2CE010E94E511B501A401CE016E
:102470000E9401116BE2CE010E94E511B701A60195
:10248000CE010E9401116CE2CE01DF91CF911F912C
:102490000F91FF90EF90DF90CF90BF90AF909F9003
:1024A0008F900C94E511FC0185A9811104C091A1C4
:1024B00082A19CBD8DBD08951F93CF93DF93EC0146
:1024C000162FE881F9810284F385E02D0995112307
:1024D00071F06DADCE010E94E511E881F9810688A9
:1024E000F789E02DCE01DF91CF911F9109946EAD58
:1024F000F1CFAF92BF92CF92DF92EF92FF920F9304
:102500001F93CF93DF93EC0177FD38C088859985C1
:10251000681779079CF557FD31C08A859B85481758
:10252000590764F569017A015B01E881F981028448
:10253000F385E02DCE010995E881F98102A4F3A588
:10254000E02D01E010E021E030E0A701B501CE016F
:102550000995B601CE010E947311E881F9810688C0
:10256000F789E02DCE01DF91CF911F910F91FF9060
:10257000EF90DF90CF90BF90AF900994DF91CF9113
:102580001F910F91FF90EF90DF90CF90BF90AF9091
:1025900008958F929F92AF92BF92CF92DF92EF9267
:1025A000FF920F931F93CF93DF93EC0149015701E3
:1025B000E881F98102A4F3A5E02D09959401D801E1
:1025C0000E943D2B6B017C01C114D104E104F10494
:1025D00009F47DC08DA9811115C081E0C81AD10808
:1025E000E108F1088FEFC816D806E806F80609F4E6
:1025F0006EC0BEBC0DB407FEFDCFAEBC0DB407FE71
:10260000FDCFEBCF813099F581E0C81AD108E10800
:10261000F1088FEFC816D806E806F80609F457C087
:102620000B2D18E0CE0107FF1CC00E94F610CE0152
:102630000E94E010CE010E94D510000F115091F7BA
:102640000A2D18E0CE0107FF0FC00E94F610CE0140
:102650000E94E010CE010E94D510000F115091F79A
:10266000D3CF0E94EB10E3CF0E94EB10F0CFBA1053
:1026700016C0CC0CDD1CEE1CFF1CEF8DF8A1B08247
:1026800081E0C81AD108E108F1088FEFC816D80612
:10269000E806F806E1F0CE010E94C710F1CF81E014
:1026A000C81AD108E108F1088FEFC816D806E80665
:1026B000F80669F0EF8DF8A1B082CE010E94C71034
:1026C000EF8DF8A1A082CE010E94C710E8CFDF9164
:1026D000CF911F910F91FF90EF90DF90CF90BF901F
:1026E000AF909F908F9008958F929F92AF92BF92DC
:1026F000CF92DF92EF92FF920F931F93CF93DF93CE
:102700005C014B016A01E90177FD52C0DC011896BA
:102710008D919C91681779070CF04AC0209709F4B5
:1027200047C037FF07C0C9010196C80ED91ED19511
:10273000C195D109F50182859385C816D906C4F5DE
:10274000A6014C0F5D1F9A012150310937FD30C0A1
:10275000D7FE03C0EA01D12CC12C281739071CF081
:10276000EC01CC19DD09D501ED91FC910284F385D2
:10277000E02DC501099578018E0121E030E0A60128
:10278000B401C5010E94C912D501ED91FC910688E2
:10279000F789E02DC501DF91CF911F910F91FF9037
:1027A000EF90DF90CF90BF90AF909F908F90099463
:1027B000DF91CF911F910F91FF90EF90DF90CF901D
:1027C000BF90AF909F908F9008958F929F92AF92FD
:1027D000BF92CF92DF92EF92FF920F931F93CF930E
:1027E000DF935C016B014A01E90157FD52C0DC0136
:1027F0001A968D919C91481759070CF04AC0209762
:1028000009F447C037FF07C0C9010196C80ED91E99
:10281000D195C195D109F50180859185C816D90654
:10282000C4F5A6014C0F5D1F9A012150310937FDF7
:1028300030C0D7FE03C0EA01D12CC12C28173907BC
:102840001CF0EC01CC19DD09D501ED91FC9102845D
:10285000F385E02DC5010995780101E010E09E01A6
:10286000A401B601C5010E94C912D501ED91FC91E8
:102870000688F789E02DC501DF91CF911F910F9157
:10288000FF90EF90DF90CF90BF90AF909F908F9090
:102890000994DF91CF911F910F91FF90EF90DF90FE
:1028A000CF90BF90AF909F908F9008958F929F92FE
:1028B000AF92BF92CF92DF92EF92FF920F931F934E
:1028C000CF93DF934C016B015A01E901209709F482
:1028D0006CC00115110509F468C037FF07C0C901B4
:1028E0000196C80ED91ED195C195D109F401A085D4
:1028F000B185CA16DB060CF058C017FF07C0C80127
:102900000196A80EB91E119501951109F401828551
:102910009385A816B9060CF048C0F601EC0FFD1F10
:10292000AF014150510957FD40C0B501600F711F03
:102930009B012150310937FD38C0D7FE03C0EF019C
:10294000D12CC12CB7FE03C08B01B12CA12C4A178E
:102950005B071CF0ED01CC19DD09281739071CF0C5
:102960008C010A191B09D401ED91FC910284F385B5
:10297000E02DC40109959E01A501B601C4010E9484
:10298000C912D401ED91FC910688F789E02DC401AC
:10299000DF91CF911F910F91FF90EF90DF90CF903B
:1029A000BF90AF909F908F900994DF91CF911F912E
:1029B0000F91FF90EF90DF90CF90BF90AF909F90DE
:1029C0008F900895EF92FF920F931F93CF93DF9311
:1029D00077FD32C0DC011896ED91FC916E177F07F0
:1029E0005CF52115310541F137FF07C0F90131963A
:1029F0004E0F5F1F319521953109DC011A96ED913B
:102A0000FC914E175F07C4F4EA01C20FD31FDE0129
:102A10001197B7FD11C057FF03C09E0150E040E081
:102A2000AE17BF071CF09F01241B350B78018901ED
:102A300021E030E00E94C912DF91CF911F910F91E8
:102A4000FF90EF900895EF92FF920F931F93CF9313
:102A5000DF9357FD31C0DC011A96ED91FC914E17C2
:102A60005F0754F52115310539F137FF07C0F9012A
:102A700031966E0F7F1F319521953109DC01189633
:102A8000ED91FC916E177F07BCF4EB01C20FD31FD1
:102A9000DE011197B7FD10C077FF03C09E0170E003
:102AA00060E0AE17BF071CF09F01261B370B7801B3
:102AB00001E010E00E94C912DF91CF911F910F91A8
:102AC000FF90EF9008958F929F92AF92BF92CF9216
:102AD000DF92EF92FF920F931F93CF93DF93470103
:102AE0002115310509F44BC00115110509F447C042
:102AF00037FF07C0F90131966E0F7F1F3195219581
:102B00003109DC011896AD90BC906A157B05BCF5C7
:102B100017FF07C0F80131964E0F5F1F1195019501
:102B20001109DC011A96ED91FC914E175F073CF5F7
:102B30006B01C20ED31EE6012197D7FD20C07A019A
:102B4000E00EF11ED7011197B7FD19C077FF03C042
:102B5000960170E060E057FF03C0870150E040E05D
:102B6000CA15DB051CF09501261B370BAE17BF07F6
:102B70001CF08F01041B150B74010E94C912DF9118
:102B8000CF911F910F91FF90EF90DF90CF90BF906A
:102B9000AF909F908F900895EF92FF920F931F93A5
:102BA000CF93DF93EC0177FD22C088859985681764
:102BB0007907ECF457FD1BC08A859B854817590798
:102BC000B4F47901E881F98102A4F3A5E02D01E0D4
:102BD00010E021E030E0CE010995B701CE01DF9190
:102BE000CF911F910F91FF90EF900C947311DF9193
:102BF000CF911F910F91FF90EF900895CF93DF93A6
:102C0000EC010E9453128FA987FD06C0EB8DFC8D4D
:102C100080819AA989238083DF91CF9108950895B7
:102C2000AF92BF92CF92DF92EF92FF920F931F93DA
:102C3000CF93DF93BC016F5F7F4FFC011491115064
:102C400008F47AC0FB01D4917B01F2E0EF0EF11C95
:102C5000FB0131960491C02FCF7788E694E00E9463
:102C6000531280919F0487FD09C0E0918304F09185
:102C70008404808190919A0489238083E091850463
:102C8000F0918604808190919C04892380836D2F2C
:102C900088E694E00E94B411E0918504F0918604E6
:102CA000808190919B04892B8083F701B12CA12C0A
:102CB000D0E0AC16BD06F4F480919D046F01823023
:102CC00081F480919804882361F0619171916F0182
:102CD00088E694E00E947311EFEFAE1ABE0AF60187
:102CE000E8CF8FEFC81AD80A649188E694E00E9472
:102CF000B411F2CF80919F0487FD09C0E091830455
:102D0000F0918404808190919904892B8083B7018C
:102D10006C0F7D1F07FF93CFEB012196FB016491A0
:102D200070E06F3F710511F464EF71E090E080E0B6
:102D30000E944310BE0183CFDF91CF911F910F916D
:102D4000FF90EF90DF90CF90BF90AF9008950F93DA
:102D50001F93CF93DF93EC018B010E9453128FA935
:102D600087FD06C0EB8DFC8D80819AA98923808325
:102D7000ED8DFE8D80819CA98923808366E3CE0141
:102D80000E94B411ED8DFE8D80819BA9892B8083DB
:102D90008DA9F801823091F06081CE010E94B411BA
:102DA0008FA987FD06C0EB8DFC8D808199A9892BA9
:102DB0008083DF91CF911F910F91089588A9882377
:102DC00059F360817181CE010E947311E9CFCF93D5
:102DD000DF931F92CDB7DEB7FC0119826370668B5B
:102DE000DC01AD5BBF4F2C9130E011968C9190E0EF
:102DF000623031F06330C9F0613081F040EC4983DA
:102E000032AF21AF94AF83AFBE016F5F7F4FCF0171
:102E10000E94A7160F90DF91CF91089540EA498351
:102E200034AF23AF92AF81AFEFCF40E6F8CFCF936F
:102E3000DF931F92CDB7DEB7FC0119826370668BFA
:102E4000DC01AA5BBF4F8C91982F9B7FAF014C5B3D
:102E50005F4F913031F493E0623008F091E0DA0195
:102E60009C939F012D5B3F4F623009F44CC063304F
:102E700009F459C0613069F1823021F098EC843056
:102E800009F046C090EC99838130D1F480E890E05D
:102E90009387828791878087D9018C9190E092AF48
:102EA00081AFDA018C9190E094AF83AFBE016F5F88
:102EB0007F4FCF010E94A7160F90DF91CF91089509
:102EC000843051F580EA90E09387828780E590E036
:102ED000E1CF823019F098EA843061F590EA998365
:102EE000813091F580E890E0918780879387828791
:102EF000D9018C9190E094AF83AFDA018C9190E08E
:102F000092AF81AFD3CF823039F08430D9F298E0DC
:102F10009983813009F4BACF80EA90E09387828761
:102F200080E890E0B7CF823019F098E6843011F451
:102F300090E6D5CF99838130A9F280EA90E091871D
:102F4000808780E890E0D2CF8430B9F780EA90E0C3
:102F50009187808780E590E0C9CFFC0187A987FD34
:102F600006C0A38DB48D9C9181A9892B8C93089563
:102F70000895FC016370668B848195812681378179
:102F8000613039F0633029F0918780873387228759
:102F90000895318720879387828708952F923F92E3
:102FA0004F925F926F927F928F929F92AF92BF9259
:102FB000CF92DF92EF92FF920F931F93CF93DF9305
:102FC000CDB7DEB76A970FB6F894DEBF0FBECDBFA0
:102FD0009A8F898F7A8369834A01D22E18870F834B
:102FE0003701BC2CDC0159962D913C915A97211543
:102FF000310509F015C118968D919C9119976817A4
:1030000079070CF0D7C11A968D919C9148175907F2
:103010000CF0D0C14C2C512CB6E0CB9E600D711D34
:1030200011247C876B87161617060CF0C3C1EA2D96
:10303000F0E0FA87E98793E0EE0FFF1F9A95E1F73A
:10304000F88BEF87CF01840F951F181619060CF027
:10305000B1C1A98DBA8D58968C91811104C0BFEA77
:10306000BD1508F4D394A98DBA8DED91FC911197FB
:103070000284F385E02DCD010995B5E0DB9EC0010A
:103080001124E981FA81FC83EB83312C212C9C01F2
:1030900028593F4F388F2F8B4A2D50E05E8B4D8B38
:1030A000EF89F88DE20DF31D44919E828D82D12C23
:1030B000C12C69817A81620D731D7A8B698B842F93
:1030C00090E09C8B8B8BE98DFA8DA081B18140FFC4
:1030D00082C0F1E0BF126FC0AF126DC01C96ED91BF
:1030E000FC912F813885A4014C0D5D1D69897A8979
:1030F000898D9A8D0995EB89FC89F595E7954E2F79
:103100005FEFC51AD50A6D817E818D899E89680F12
:10311000791F7E836D8398E0C916D10481F6AFEFE5
:103120002A1A3A0AEB81FC81E40DF51DFC83EB833E
:10313000F5E02F16310409F0B3CF2F81388526151D
:103140003705B9F0A98DBA8DED91FC91B1E0BB12B4
:1031500057C0AB1255C069817A816B5F7F4F008881
:10316000F189E02D830128E030E0A401898D9A8D5A
:103170000995A98DBA8DED91FC9111970688F78973
:10318000E02DCD016A960FB6F894DEBF0FBECDBF1D
:10319000DF91CF911F910F91FF90EF90DF90CF9033
:1031A000BF90AF909F908F907F906F905F904F9067
:1031B0003F902F9009941E96ED91FC91EF80F8843A
:1031C00009851A8592014D815E816B817C81898D93
:1031D0009A8D099590CF2F8138852615370509F4EA
:1031E0008ACF31E0B31207C0A31205C01C96ED913F
:1031F000FC91930178CF1E96ED91FC917301E0CF85
:103200006B857C85641975090684F785E02D73014B
:103210000F8518899201A401898D9A8D0995A9CFEE
:10322000F90134969491329745915491D91AB7E0A7
:10323000DB9E400D511D1124F901259134913C8BE9
:103240002B8BFA0125903490FA01329674903196C6
:103250003491398B329664903196449041E04C150C
:1032600018F04A1508F07FC0662D062C000C770B6D
:103270007C836B83842D042C000C990B9E838D839F
:10328000A98DBA8DED91FC9111970284F385E02D03
:10329000CD010995512CD12CC12CEA2DF0E0FA87F3
:1032A000E9872B2D30E03C872B87A401440D511D6D
:1032B00047FC5A95588F4F8B69817A81660D711D35
:1032C00067FC7A957E876D877989C71608F051CF9C
:1032D0002C2D30E04D815E81420F531FA985BA85A8
:1032E0004A9FC0014B9F900D5A9F900D1124FC01E5
:1032F000E80DF91DF88BEF87852D612C4F89588DCE
:10330000420F531F5E8B4D8B671408F050C044244E
:103310004394480E877041F4C1010196EB89FC8902
:10332000E20DF31DD4901C01D7FE19C0A98DBA8DF2
:10333000ED91FC91662D70E0B1E0BB1219C0AB12AB
:1033400017C02D853E85620F731F0484F585E02D1F
:103350002F8138854D895E89898D9A8D0995DD0C7F
:103360006394842DD1CF1E821D821C821B8288CF44
:103370004B815C81640F751FAB85BC856A9FC00162
:103380006B9F900D7A9F900D112469817A81680F4F
:10339000791F0684F785E02DEF80F88409851A856A
:1033A0009D014F855889898D9A8D0995D8CF570CE5
:1033B000C3948ACF6A960FB6F894DEBF0FBECDBF16
:1033C000DF91CF911F910F91FF90EF90DF90CF9001
:1033D000BF90AF909F908F907F906F905F904F9035
:1033E0003F902F9008958F929F92AF92CF92EF923D
:1033F000FF920F931F93CF93DF93EC01262F898DBC
:103400009A8D009709F051C06A30D1F41D861C8650
:103410008D8948E0849F900111248E859F85820FBD
:10342000931F9F878E8781E090E0DF91CF911F915E
:103430000F91FF90EF90CF90AF909F908F90089555
:103440006D3089F3CC88AD888F898823C1F08C8555
:103450009D8536E0C39E800D911D112448855985B8
:103460004817590764F44E855F851D861C8638E031
:10347000A39EC0011124840F951F9F878E87EA8821
:10348000FB88088919894E855F856C857D85CE010D
:103490000E94CE172C898C859D8546E0249F800D47
:1034A000911D11249D878C87BECF6A3069F41D86DB
:1034B0001C86FC013896E4912D898E859F85E29FBC
:1034C000800D911D1124ADCF6D3009F4ACCFFC01FE
:1034D00034963491631708F4A6CF3296E491E61738
:1034E00008F4A1CFFC01329685909490462F431B9F
:1034F000342F47E0349F800C911C1124F401329644
:1035000034913196E4913323A9F1EE2399F1CC88DB
:10351000F4013596E491AD884F89442301F10E2ED4
:10352000000CFF0BE30FF11DCE9EA001CF9E500DAE
:1035300011246C857D85460F571F68857985641732
:1035400075076CF44E855F851D861C86FC013896D8
:10355000E491AE9E400D511D11245F874E87EA888D
:10356000FB88088919894E855F856C857D85CE012C
:103570000E94CE17F4013496E4912C898C859D85A8
:10358000E29F800D911D11248DCF6F927F928F92BB
:103590009F92AF92BF92CF92DF92EF92FF920F93E2
:1035A0001F93CF93DF93EC016B015A01390148015E
:1035B000E881F9810284F385E02D0995E881F9819C
:1035C0000288F389E02D87019301A501B601CE01A0
:1035D0000995A501480D591D41505109E881F9810E
:1035E0000288F389E02D9301B601CE010995E881A7
:1035F000F9810088F189E02D9401A501B601CE0181
:103600000995C60CD71CB60161507109E881F98192
:103610000088F189E02D9401A501CE010995E8818A
:10362000F9810688F789E02DCE01DF91CF911F91B6
:103630000F91FF90EF90DF90CF90BF90AF909F9051
:103640008F907F906F9009946F927F928F929F924C
:10365000AF92BF92CF92DF92EF92FF920F931F93A0
:10366000CF93DF935C01EB016A01490138018701C7
:10367000DC01ED91FC916217730719F5641675066C
:103680002CF0962D872D3A01C92ED82E9601261999
:1036900037092F5F3F4F048CF58DE02DA301BE014C
:1036A000C5010995DF91CF911F910F91FF90EF9088
:1036B000DF90CF90BF90AF909F908F907F906F9052
:1036C00008954615570591F42617370724F0892DDC
:1036D0004B01C22FD82F9E01281939092F5F3F4F68
:1036E000068CF78DE02DA601B401DACF0284F385B4
:1036F000E02D0995D501ED91FC910488F589E02D27
:1037000083019401A601BE01C5010995D501ED9182
:10371000FC910688F789E02DC501DF91CF911F91BB
:103720000F91FF90EF90DF90CF90BF90AF909F9060
:103730008F907F906F900994EF92FF920F931F9359
:10374000DC011A960D911C911B9718962D913C91B6
:103750001997ED91FC9100A0F1A1E02D7B0150E0C3
:1037600040E070E060E009951F910F91FF90EF90AD
:1037700008954F925F926F927F928F929F92AF9235
:10378000BF92CF92DF92EF92FF920F931F93CF934E
:10379000DF936C012B015A0139014801DC01ED91E5
:1037A000FC910284F385E02D0995E201640C751CFF
:1037B000D601ED91FC91C615D7055CF40088F1891E
:1037C000E02D87019401A501BE01C601099521964E
:1037D000EFCF0688F789E02DC601DF91CF911F91C9
:1037E0000F91FF90EF90DF90CF90BF90AF909F90A0
:1037F0008F907F906F905F904F9009948F929F92DF
:10380000AF92BF92CF92DF92EF92FF920F931F93EE
:10381000CF93DF93EC015B014A016901E881F981F3
:103820000284F385E02D099595012C0D3D1D215055
:103830003109E881F9810488F589E02D7801840156
:10384000A401B501CE010995E881F9810688F789BF
:10385000E02DCE01DF91CF911F910F91FF90EF905E
:10386000DF90CF90BF90AF909F908F9009948F92F0
:103870009F92AF92BF92CF92DF92EF92FF920F93FF
:103880001F93CF93DF93EC015B014A01690178013B
:10389000E881F9810284F385E02D0995C80CD91CD3
:1038A000860101501109E881F9810488F589E02D2C
:1038B0009501A401B501CE010995E881F981068839
:1038C000F789E02DCE01DF91CF911F910F91FF90ED
:1038D000EF90DF90CF90BF90AF909F908F90099422
:1038E000EF92FF920F931F93DC01ED91FC9100A0EA
:1038F000F1A1E02D09951F910F91FF90EF90089590
:103900000F931F93DC01ED91FC91068CF78DE02D58
:1039100009951F910F9108950F931F93DC01ED916D
:10392000FC91048CF58DE02D09951F910F91089560
:10393000DC01ED91FC910084F185E02D09942F923A
:103940003F924F925F926F927F928F929F92AF922F
:10395000BF92CF92DF92EF92FF920F931F93CF937C
:10396000DF9300D000D000D0CDB7DEB73C016A01B4
:103970003E832D83FC82EB825801A41AB50AB7FE60
:1039800003C0B194A194B1088D809E80861A970AD5
:1039900097FE03C09194819491088A149B045CF073
:1039A000902F812F0D811E819D838E839C2D8D2DC7
:1039B0006B01692F782F0C151D055CF09D818E81A0
:1039C0007E836D83692F782F902F812F8601C92EDA
:1039D000D82E1601201A310A2B012D813E81421A60
:1039E000530A57FE03C0519441945108710137FEA8
:1039F00003C03FEFE31AF30AF594E7948D819E81AB
:103A0000861797075CF5A1E0B0E0BA83A983C016DA
:103A1000D1064CF1D301ED91FC910484F585E02DA4
:103A20002B813C81A8016D817E818A149B041CF04E
:103A30004D815E81B801C3010995E418F508F7FED0
:103A40000AC02D813E8189819A81280F391F3E83CA
:103A50002D83E20CF31C0F5F1F4FD9CF2FEF3FEFE9
:103A60003A832983D4CF26960FB6F894DEBF0FBED3
:103A7000CDBFDF91CF911F910F91FF90EF90DF901D
:103A8000CF90BF90AF909F908F907F906F905F90FE
:103A90004F903F902F900895089590E080E0089512
:103AA0002F923F924F925F926F927F928F929F924E
:103AB000AF92BF92CF92DF92EF92FF920F931F933C
:103AC000CF93DF93EC017B01590168018091700471
:103AD00090917104C817D907C4F4209172043091F1
:103AE0007304621773078CF44E018A0C9B1C34011B
:103AF00061E0661A710877FC08C0D701A00FB11FFA
:103B0000BD016150710977FF85C0DF91CF911F9191
:103B10000F91FF90EF90DF90CF90BF90AF909F906C
:103B20008F907F906F905F904F903F902F9008956F
:103B3000002711270C1B1D0BD0E0C0E0F0E0E0E0F7
:103B4000F7FE07C0EE27FF27EE19FF096D01F12CE4
:103B5000E12C681679061CF04C018C1A9D0A62173C
:103B600073071CF06901CE18DF08AE9E3001AF9ECE
:103B7000700CBE9E700C1124600E711E660C771CBA
:103B8000640E751E88E694E00E94FE15860194017D
:103B9000A701BE0188E694E00E94FA11AA0CBB1CA2
:103BA00081E0C81AD10800F11401092C000C440866
:103BB0005508211431044104510499F0E30181E0D6
:103BC000281A3108410851086FEF261636064606B6
:103BD000560639F06991799188E694E00E94731154
:103BE000EECF6A0C7B1CDCCF88E694E0DF91CF91AE
:103BF0001F910F91FF90EF90DF90CF90BF90AF900B
:103C00009F908F907F906F905F904F903F902F90FC
:103C10000C94AD17D7FD8CCF450110E000E08ECF9E
:103C2000AF92BF92CF92DF92EF92FF920F931F93CA
:103C3000CF93DF936B01B22EA32EEA017C01899111
:103C4000882309F43EC020E28202C00111248D5F66
:103C5000944F45E552E0FC0125913491DA0170E082
:103C600060E0E22FF0E020FD29C02FEF3FEF2D9321
:103C70003D939F01359527956F5F7F4F68307105A4
:103C800081F70296405F5F4F23E04535520719F7F1
:103C900088E694E00E94FE1500E110E028E030E0A4
:103CA00045E552E0B601C7010E94501D88E694E048
:103CB0000E94AD1788E0E80EF11CC1CF2B2D3A2DE4
:103CC000D6CFDF91CF911F910F91FF90EF90DF90B2
:103CD000CF90BF90AF900895CF93DF93EC01809188
:103CE000F3039091F403009759F02091F50330917C
:103CF000F6032C173D0720F081E0DF91CF91089566
:103D0000BE016F5F7F4F0E94772C009789F09093E0
:103D1000F4038093F303D093F603C093F50320914B
:103D2000F7033091F803232B39F7FC011082E4CF1D
:103D300080E0E3CF0F931F93CF93DF9300D0CDB7F5
:103D4000DEB789831A820091F7031091F8030F5FA1
:103D50001F4FC8010E946C1E8823A1F02091F3031D
:103D60003091F4038091F7039091F803BE016F5FE7
:103D70007F4F820F931F0E94562D1093F8030093DC
:103D8000F70381E00F900F90DF91CF911F910F917A
:103D9000089590E080E00E946C1E2091F303309122
:103DA000F403811113C02115310519F0C9010E94D6
:103DB000EE2B1092F4031092F3031092F80310927A
:103DC000F7031092F6031092F50308951092F8038A
:103DD0001092F70364E771E0C9010C94562DAF927D
:103DE000BF92CF92DF92EF92FF920F931F93CF93E8
:103DF000DF936C0180EC90E00E94522B5C01D0E0DC
:103E0000C0E090E1E92EF12CD50130E020E0F9018D
:103E100083E0F595E7958A95E1F7EC0FFD1FEC0D32
:103E2000FD1D849190E0A90140955095477055275C
:103E300002C0959587954A95E2F780959095817097
:103E400099279195819591098D939D932F5F3F4F70
:103E500020363105E1F688E694E00E94FE1501E087
:103E600010E020E630E0A501B70180E190E00E947B
:103E7000501D88E694E00E94AD178FEFE81AF80A0B
:103E80002C96C03884E0D80709F0BECFC501DF9179
:103E9000CF911F910F91FF90EF90DF90CF90BF9047
:103EA000AF900C94EE2B2F923F924F925F926F92B5
:103EB0007F928F929F92AF92BF92CF92DF92EF92BA
:103EC000FF920F931F93CF93DF93CDB7DEB7689721
:103ED0000FB6F894DEBF0FBECDBF7C876B87388FDF
:103EE0002F8B1E830D83220F331F38872F83498327
:103EF0005A831C01C801092E000CAA0BBB0B8F872B
:103F0000988BA98BBA8B8F89988D092E000CAA0BE0
:103F1000BB0B8B8B9C8BAD8BBE8BA981BA811D910A
:103F2000BA83A983112309F4A9C08F8198850E94BF
:103F3000522B4C01812F110F990B8097FC0195E0BA
:103F4000EE0FFF1F9A95E1F7FA87E987B12CA12CB4
:103F5000B5010B2C000C880B990B0E94E92820E07E
:103F600030E040E05FE30E94292A2B013C016F858D
:103F7000788989899A890E94E9289B01AC01C3014B
:103F8000B2010E94952A20E030E040E851E40E940E
:103F900024290E94072B660F771FE985FA85E60F13
:103FA000F71FED5FF04F859194918B829C8210E01A
:103FB00000E09C0133273E872D87B801012E000CBD
:103FC000880B990B0E94E92820E030E040E05FE395
:103FD0000E94292A2B013C016B897C898D899E894D
:103FE0000E94E9289B01AC01C301B2010E94952AFD
:103FF00020E030E040E051E40E9424290E94072B99
:104000008D859E8502C0959587956A95E2F780FD1E
:1040100033C0C601AB81BC818D939D93BC83AB83C0
:104020000F5F1F4FEF89F88DE017F10731F688E633
:1040300094E00E94FE156B857C856A0D7B1D01E076
:1040400010E02F89388DA401C1010E94501D88E61F
:1040500094E00E94AD17FFEFAF1ABF0A2D813E8199
:104060002A153B0509F074CFC4010E94EE2B8F89FD
:10407000988D280E391E51CFC701CCCF68960FB648
:10408000F894DEBF0FBECDBFDF91CF911F910F918E
:10409000FF90EF90DF90CF90BF90AF909F908F9068
:1040A0007F906F905F904F903F902F9008951F9357
:1040B000CF93DF9385ED8093BC008091C7019091F1
:1040C000C801A091C901B091CA010796A11DB11DF7
:1040D00023E0B695A795979587952A95D1F72091D6
:1040E000BC0024FD03C010920F0252C04091C701D2
:1040F0005091C8016091C9017091CA01452B462BAE
:10410000472B69F30097A105B10541F025E32A95F6
:10411000F1F700000197A109B109E1CF8091C60133
:10412000C1E0C093C501882399F1D091B8001091E6
:10413000BA008091BC008A7B8093BC0060E082E181
:104140000E94AC0F60E083E10E94AC0F10920F025E
:10415000C09311021092100261E082E10E94AC0F44
:1041600061E083E10E94AC0F8091B9008E7F809363
:10417000B9008091B9008D7F8093B90088E4809365
:10418000B80085E48093BC001093BA00D093B800C7
:10419000DF91CF911F9108950E94342DCF92DF922D
:1041A000EF92FF920F931F93CF93DF93EC016A017D
:1041B0007B01C114D104E104F10439F4C12C48E4B9
:1041C000D42E48EEE42EFF24F394FE01FF96C08225
:1041D000D182E282F38281E28DAF80E28EAF3696A9
:1041E00010818FA987FD07C061E00E94DE0F61E0AA
:1041F0008FA90E94AC0F61E088AD0E94DE0F61E0E4
:1042000088AD0E94AC0F8DA9811182C040E052E1BF
:104210006AE770E0C416D506E606F70640F4769520
:104220006795579547958F5F8630A1F787E0212FD7
:104230002C702065982F9695922B99A3809581706C
:104240008AA3812F90E0B0E0A0E08BA39CA3ADA354
:10425000BEA31FB7F89480913502811127C0EBE00F
:10426000FBE18491EDEEFAE19491E82FF0E0EE0F9E
:10427000FF1FE859FA4FA591B491EC91E92321F47D
:1042800061E08AE00E94AC0F61E08AE00E94DE0FEC
:104290008CB580618CBD8CB580648CBD61E08DE097
:1042A0000E94DE0F61E08BE00E94DE0F80913502FC
:1042B0008F5F809335021FBF8EA987FD75C061E0B7
:1042C0000E94DE0F61E08EA90E94AC0F64E670E0F0
:1042D00080E090E00E94431060E08EA90E94AC0F45
:1042E00064E670E080E090E00E94431061E08EA9F7
:1042F0000E94AC0F68EC70E080E090E0DF91CF911D
:104300001F910F91FF90EF90DF90CF900C9443108E
:1043100001E01BE1F12C8130B9F461E08AA50E9433
:10432000DE0F60E08AA50E94AC0F61E08CA50E94C0
:10433000DE0F60E08CA50E94AC0F8BA587FDBCCF83
:1043400060E00E94DE0FB8CFF8018491E82FF0E022
:10435000EE0FFF1FE950F54E859194912F8D38A1F6
:104360002817390741F461E08F2D0E94DE0F60E0CD
:104370008F2D0E94AC0FF3940F5F1F4FF4E1FF12DB
:10438000E3CF61E08EA50E94DE0F61E08EA50E9462
:10439000AC0F8FA587FD90CF61E00E94DE0F61E03A
:1043A0008FA50E94AC0F88CFDF91CF911F910F9105
:1043B000FF90EF90DF90CF900895CF92DF92EF9231
:1043C000FF920F931F93CF93DF93C0911804D09166
:1043D0001904C330D10551F48A338CF480330CF0C6
:1043E00042C0833209F46EC08A32E9F1DF91CF9185
:1043F0001F910F91FF90EF90DF90CF90089583343D
:1044000009F47BC0843491F780914F02909150025F
:10441000009709F089C08091F7039091F803892BE8
:1044200071F08091F3039091F403FC01208121113C
:1044300006C06AE671E00E944D2D892B31F081E0C3
:1044400090E09093500280934F026FEF7FEF88E6E9
:1044500094E0DF91CF911F910F91FF90EF90DF904B
:10446000CF900C949C1B20914F0230915002232B33
:1044700009F0BCCF2091F7033091F80325303105C6
:1044800008F0B4CF8A3251F0DF91CF911F910F9194
:10449000FF90EF90DF90CF900C949A1E232B81F029
:1044A000C091F303D091F4036EE270E0CE010E945C
:1044B000422D009729F08C1B9D0B019609F096CF99
:1044C0008EE2E2CF80914F0290915002892B09F049
:1044D0008DCF8091F7039091F803009709F486CF70
:1044E0000197E091F303F091F403E80FF91F909323
:1044F000F8038093F703108279CF80914F02909157
:104500005002892B51F4DF91CF911F910F91FF90B1
:10451000EF90DF90CF900C94C91E84E090E09093D0
:10452000500280934F0262CF8130910521F590EEC9
:10453000C92E97E0D92EF12CE12C08E110E02CE0F7
:1045400030E04CE651E062E370E084E190E00E94EC
:10455000531FFFEF29E688E1F15020408040E1F74A
:1045600000C000006FEF7FEF88E694E00E949C1B84
:1045700082E090E0D4CF029709F038CF80EEC82EC9
:1045800087E0D82EF12CE12C08E110E02CE030E09F
:104590004CE651E062E370E084E190E00E94531F3A
:1045A0009FEFE9E6F8E19150E040F040E1F700C00C
:1045B0000000D0935002C0934F0218CF1F920F9269
:1045C0000FB60F9211242F933F934F935F936F93E6
:1045D0007F938F939F93AF93BF93EF93FF9385E563
:1045E00093E00E94C80EFF91EF91BF91AF919F9110
:1045F0008F917F916F915F914F913F912F910F908C
:104600000FBE0F901F9018951F920F920FB60F922A
:1046100011242F938F939F93EF93FF93E091650362
:10462000F09166038081E0916B03F0916C0382FD51
:104630001BC0908180916E038F5F8F7320916F03F9
:10464000821741F0E0916E03F0E0EB5AFC4F958F3A
:1046500080936E03FF91EF919F918F912F910F9017
:104660000FBE0F901F9018958081F4CF1F920F926C
:104670000FB60F9211242F933F938F939F93AF9375
:10468000BF938091510290915202A0915302B09138
:1046900054023091360223E0230F2D3758F501964E
:1046A000A11DB11D209336028093510290935202B6
:1046B000A0935302B0935402809137029091380234
:1046C000A0913902B0913A020196A11DB11D8093CB
:1046D000370290933802A0933902B0933A02BF9107
:1046E000AF919F918F913F912F910F900FBE0F909F
:1046F0001F90189526E8230F0296A11DB11DD2CF59
:104700001F920F920FB60F9211242F933F934F9346
:104710005F936F937F938F939F93AF93BF93EF9329
:10472000FF938091B900887F803609F44AC0F0F584
:10473000883209F4A5C018F5803109F499C0B8F49D
:10474000882309F4F5C0883009F492C0FF91EF91F5
:10475000BF91AF919F918F917F916F915F914F9199
:104760003F912F910F900FBE0F901F901895883199
:1047700009F486C0803251F780930E0214C0803451
:1047800009F49BC040F48033B9F38833F9F6809381
:104790000E0285ECAEC0803509F483C0883509F47B
:1047A00094C0883499F60E945720D0CF883909F4F4
:1047B0008AC038F5883729F050F4883611F08037F0
:1047C00029F683E080930F0210920D0255C08838BD
:1047D00009F479C0803919F0803809F0B7CF809199
:1047E0000D02803208F06FC0E0910D0281E08E0F63
:1047F00080930D028091BB00F0E0E351FE4F808377
:104800003BC0803B39F0D0F4803A09F477C0883A55
:1048100009F09CCF84E080930F021092EC0110927B
:10482000EB01F0E0E0E009958091EB0181110FC010
:1048300081E08093EB011092CB0109C0803C09F428
:10484000A8CF883C09F4A5CF883B09F07FCFE09141
:10485000EC0181E08E0F8093EC01F0E0E553FE4F18
:1048600080818093BB009091EC018091EB0129C085
:10487000809134028093BB0085EC8093BC0066CFAE
:104880009091330280913202981758F5E0913302EB
:1048900081E08E0F80933302F0E0EE5EFD4F808169
:1048A000E9CFE091330281E08E0F80933302809153
:1048B000BB00F0E0EE5EFD4F80839091330280916B
:1048C00032029817C8F285E8D8CFE091330281E030
:1048D0008E0F809333028091BB00F0E0EE5EFD4FBF
:1048E00080838091110281115ECF81E0809310025C
:1048F00084EA8093BC0010920F0228CF85EC80934D
:10490000BC0010920F0280910D02803230F4E091D1
:104910000D02F0E0E351FE4F108260910D0270E055
:104920008DEE91E0F0E0E0E0099510920D020ECFDF
:1049300010920E0238CF109258031092570388EE4F
:1049400093E0A0E0B0E08093590390935A03A093C2
:104950005B03B0935C0382E291E0909356038093F3
:10496000550385EC90E0909362038093610384EC9F
:1049700090E0909364038093630380EC90E09093C5
:1049800066038093650381EC90E0909368038093C5
:10499000670382EC90E090936A038093690386EC4E
:1049A00090E090936C0380936B0310926E031092CF
:1049B0006F03109270031092710310926B041092A7
:1049C0006A0420E830E030936D0420936C0480EAA0
:1049D00090E090936F0480936E0430937104209361
:1049E0007004909373048093720410927E0410926A
:1049F000750410927404109277041092760481E08A
:104A000080937D0480937C042FEF3FEF30937B04F1
:104A100020937A04309379042093780480937F0460
:104A200010928004109282041092810410929D04CE
:104A300088E080939E048AE080939F0489E08093BD
:104A4000A0041092A2041092A1041092A404109247
:104A5000A3041092A5041092A6041092A704109229
:104A6000A8041092A9041092AA0482EF93E09093F4
:104A7000880480938704EAE0FBE1E491F0E0EE0F24
:104A8000FF1FE950F54E8591949190938604809391
:104A90008504ECEEFAE1849180939B04EBE0FBE16A
:104AA000E491F0E0EE0FFF1FE950F54E25913491AF
:104AB0003093840420938304EDEEFAE1E491E093D3
:104AC0009904E095E0939A04E82FE095E0939C0424
:104AD0001092AB041092AC041092AD048EE391E0FE
:104AE00090936904809368041092FB031092FF0373
:104AF0001092FE031092000484E391E09093FA0375
:104B00008093F903E5E1F4E081E594E010821482FA
:104B10001382158236968E179F07C1F784E091E0C5
:104B200090935C0480935B0480E091E090935E043A
:104B300080935D0484E080935F048093600488E048
:104B400091E090935A04809359048AE090E0909306
:104B500062048093610484EF91E0909364048093F5
:104B60006304109267041092660410925504109228
:104B70005604109257041092580410926504109233
:104B8000F4031092F3031092F6031092F5031092BF
:104B9000F8031092F70390E080E00E946C1E2091D1
:104BA000F3033091F403811113C02115310519F07D
:104BB000C9010E94EE2B1092F4031092F30310929D
:104BC000F8031092F7031092F6031092F50308957C
:104BD0001092F8031092F70364E771E0C9010C9496
:104BE000562D789484B5826084BD84B5816084BD7F
:104BF00085B5826085BD85B5816085BD80916E007B
:104C0000816080936E0010928100809181008260AB
:104C10008093810080918100816080938100C0E851
:104C2000D0E0809180008160809380008091B1000D
:104C300084608093B1008091B00081608093B00067
:104C400080917A00846080937A0080917A008260FB
:104C500080937A0080917A00816080937A008091BD
:104C60007A00806880937A001092C1008DED91E205
:104C700090936704809366048BE490E090936204C1
:104C800080936104E0916503F091660312E0108364
:104C9000E0916103F09162031082E0916303F0916F
:104CA00064038FEC808310926D03E0916903F091AF
:104CB0006A0386E08083E0916703F0916803808156
:104CC00080618083E0916703F09168038081886050
:104CD0008083E0916703F09168038081806880831E
:104CE000E0916703F091680380818F7D808340E0CD
:104CF00050E0BA0188E694E00E94CE2088EC95E06E
:104D00000E941016D0937304C0937204D093710460
:104D1000C09370048BEB95E00E9410161093AB04C7
:104D200083E08093AC0480E995E00E94101681E056
:104D30008093AE0460E088E694E00E94171760E07C
:104D400088E694E00E94171761E08DE00E94DE0F74
:104D50006FEF7FEF88E694E00E949C1B412C512C62
:104D600032014394C3E8D1E01BE3A12E12E0B12E3F
:104D700021E0209365048FB7F8944091510250913F
:104D8000520260915302709154028FBF809155047A
:104D900090915604A0915704B0915804481B590BA8
:104DA0006A0B7B0B8091610490916204B0E0A0E0FB
:104DB00010E084179507A607B70708F444C01092BF
:104DC000650480914F0290915002009709F052C102
:104DD00030E020E045E751E070E060E090E080E006
:104DE0000E94101E8091F4038F938091F3038F93A0
:104DF000DF93CF93BF92AF920E945D2DCC24CA94D3
:104E0000DC2CE12C58EFF52E00E210E020E130E040
:104E10004BE352E064E170E090E080E00E94531FB9
:104E20000F900F900F900F900F900F90E0E0F0E038
:104E3000EF2B09F49DCF0E94B40E882309F498CF7C
:104E40000E94000095CF80915F04181760F4E091F4
:104E50005B04F0915C04E10FF11D62E080810E942F
:104E6000DE0F1F5FF0CF312C80916004381608F000
:104E700064C0032D10E0E0915D04F0915E04E00F4A
:104E8000F11F61E080810E94DE0FE0915D04F091EE
:104E90005E04E00FF11F60E080810E94AC0FD3013F
:104EA000C201032C04C0880F991FAA1FBB1F0A94BC
:104EB000D2F76C017C01E094F094212C80915F0486
:104EC000281620F5822C912CE0915B04F0915C0473
:104ED000E80DF91D80810E94800FF4013496892B22
:104EE00061F4EE0FFF1FE750FC4F808191818C2908
:104EF0009D29918380832394E1CFEE0FFF1FE7501C
:104F0000FC4F808191818E219F21F3CFE0915D0440
:104F1000F0915E04E00FF11F61E080810E94AC0F10
:104F200080915D0490915E04080F191F60E0F80104
:104F300080810E94DE0F339497CF79EFE72E73E0E4
:104F4000F72E8701F801878D90A1892B31F4148EFB
:104F50002FEF3FEF368F258F11A20A5F1F4F34E0EE
:104F60000533130779F7D12C80915F04D81608F028
:104F700053C0C12C8D2C912C880C991CC4018F5FBF
:104F80009B4F4C0120916004C21608F043C0F4010D
:104F9000608171810C2C02C0769567950A94E2F7C6
:104FA000D29E900111242C0D311DE9EFF3E080E039
:104FB000458D568D2417350709F4FEC08F5F369650
:104FC0008A30B1F760FF24C0E9EFF3E090E080E0C1
:104FD000448D411118C0E0915904F0915A04E20F38
:104FE000F31F408156E0589FF001599FF00D1124A6
:104FF000E750FC4F448F368F258F10A2178E61E04B
:105000000E94DA0D05C0019636968A30910501F7A7
:10501000C394B8CFD394A8CF80E0F70191A19111A8
:10502000892FF6E0EF0EF11C0E151F05B1F79FB7A3
:10503000F894409151025091520260915302709144
:1050400054029FBF409355045093560460935704F5
:1050500070935804882309F4B2CE80911A048823EF
:1050600009F4ADCE8091180490911904019709F0CC
:10507000A6CEA7CE8130910529F530E020E049E8A1
:1050800051E070E060E090E080E00E94101E83E854
:105090009AE00E94EF1E8091F4038F938091F303B6
:1050A0008F93DF93CF93BF92AF920E945D2D20E04C
:1050B00038EF4BE352E06FE670E086E490E00E9448
:1050C000101EAECE82309105B9F430E020E048E900
:1050D00051E070E060E090E080E00E94101E83E00C
:1050E00096E00E94EF1E8091F4038F938091F3036A
:1050F0008F93DF93CF93D7CF8330910599F50E949B
:10510000C91E20EEC22E27E0D22EE12C38EFF32E5E
:1051100008E110E02CE030E043EA51E063E270E0A7
:1051200090E080E00E94531F2CE030E04FEA51E015
:1051300061E470E090E080E00E94531FFFEF21E106
:105140003AE7F15020403040E1F700C000001092F3
:10515000500210924F026FEF7FEF88E694E00E94BA
:105160009C1B64CE049709F061CE0E94C91E80EE9C
:10517000C82EDD24DA94E12C98EFF92E08E110E036
:105180002CE030E043EA51E063E270E090E080E040
:105190000E94531F2CE030E048EB51E061E470E0E6
:1051A00090E080E00E94531F5FEF8DE399E451503F
:1051B00080409040E1F7C9CF617022CF8091F30326
:1051C0009091F403009711F00C94EE2B0895E8945D
:1051D00009C097FB3EF490958095709561957F4F3F
:1051E0008F4F9F4F9923A9F0F92F96E9BB279395ED
:1051F000F695879577956795B795F111F8CFFAF4FD
:10520000BB0F11F460FF1BC06F5F7F4F8F4F9F4F2D
:1052100016C0882311F096E911C0772321F09EE88B
:10522000872F762F05C0662371F096E8862F70E0F1
:1052300060E02AF09A95660F771F881FDAF7880FCB
:105240009695879597F908950E9437290C94A82977
:105250000E949A2938F00E94A12920F0952311F08C
:105260000C9491290C94972911240C94DC290E9408
:10527000B92970F3959FC1F3950F50E0551F629FB8
:10528000F001729FBB27F00DB11D639FAA27F00D9F
:10529000B11DAA1F649F6627B00DA11D661F829FC6
:1052A0002227B00DA11D621F739FB00DA11D621FAB
:1052B000839FA00D611D221F749F3327A00D611DC8
:1052C000231F849F600D211D822F762F6A2F1124AA
:1052D0009F5750409AF0F1F088234AF0EE0FFF1FDD
:1052E000BB1F661F771F881F91505040A9F79E3F34
:1052F000510580F00C9491290C94DC295F3FE4F374
:10530000983ED4F3869577956795B795F795E79589
:105310009F5FC1F7FE2B880F911D9695879597F992
:10532000089597F99F6780E870E060E008959FEF27
:1053300080EC089500240A9416161706180609062C
:10534000089500240A9412161306140605060895FB
:10535000092E0394000C11F4882352F0BB0F40F483
:10536000BF2B11F460FF04C06F5F7F4F8F4F9F4FC3
:10537000089557FD9058440F551F59F05F3F71F045
:105380004795880F97FB991F61F09F3F79F08795AC
:105390000895121613061406551FF2CF4695F1DF35
:1053A00008C0161617061806991FF1CF86957105C5
:1053B000610508940895E894BB2766277727CB01F9
:1053C00097F908952F923F924F925F926F927F923A
:1053D0008F929F92AF92BF92CF92DF92EF92FF9205
:1053E0000F931F93CF93DF93CDB7DEB7CA1BDB0BB1
:1053F0000FB6F894DEBF0FBECDBF09942A88398856
:1054000048885F846E847D848C849B84AA84B9845C
:10541000C884DF80EE80FD800C811B81AA81B98168
:10542000CE0FD11D0FB6F894DEBF0FBECDBFED017C
:105430000895A29FB001B39FC001A39F700D811D6D
:105440001124911DB29F700D811D1124911D08958D
:105450005058BB27AA270E94402A0C94A8290E94D2
:105460009A2938F00E94A12920F039F49F3F19F4BD
:1054700026F40C9497290EF4E095E7FB0C949129FF
:10548000E92F0E94B92958F3BA17620773078407F6
:10549000950720F079F4A6F50C94DB290EF4E0953D
:1054A0000B2EBA2FA02D0B01B90190010C01CA01DE
:1054B000A0011124FF27591B99F0593F50F4503E89
:1054C00068F11A16F040A22F232F342F4427585F7B
:1054D000F3CF469537952795A795F0405395C9F793
:1054E0007EF41F16BA0B620B730B840BBAF091504B
:1054F000A1F0FF0FBB1F661F771F881FC2F70EC0EA
:10550000BA0F621F731F841F48F4879577956795BC
:10551000B795F7959E3F08F0B0CF9395880F08F0A8
:105520009927EE0F9795879508950E94A92A0C94C4
:10553000A8290E94A12958F00E949A2940F029F434
:105540005F3F29F00C94912951110C94DC290C94A3
:1055500097290E94B92968F39923B1F3552391F350
:10556000951B550BBB27AA2762177307840738F0D2
:105570009F5F5F4F220F331F441FAA1FA9F335D02F
:105580000E2E3AF0E0E832D091505040E695001CE3
:10559000CAF72BD0FE2F29D0660F771F881FBB1F9D
:1055A000261737074807AB07B0E809F0BB0B802D7B
:1055B000BF01FF2793585F4F3AF09E3F510578F0A7
:1055C0000C9491290C94DC295F3FE4F3983ED4F3CA
:1055D000869577956795B795F7959F5FC9F7880F7B
:1055E000911D9695879597F90895E1E0660F771FCD
:1055F000881FBB1F621773078407BA0720F0621B5E
:10560000730B840BBA0BEE1F88F7E09508950E9488
:105610000E2B6894B1110C94DC2908950E94C129C5
:1056200088F09F5798F0B92F9927B751B0F0E1F063
:10563000660F771F881F991F1AF0BA95C9F714C013
:10564000B13091F00E94DB29B1E008950C94DB2980
:10565000672F782F8827B85F39F0B93FCCF386954C
:1056600077956795B395D9F73EF4909580957095A9
:1056700061957F4F8F4F9F4F08950E94192A3323C2
:1056800012F48A1B9B0B0C94472B0E94192AB7FF1C
:105690000895821B930B0895EE0FFF1F0590F49160
:1056A000E02D09940F931F93CF93DF9382309105E0
:1056B00010F482E090E0E091B104F091B20430E0A7
:1056C00020E0B0E0A0E0309799F42115310509F40D
:1056D0004AC0281B390B24303105D8F58A819B81BB
:1056E0006115710589F1FB0193838283FE0111C06D
:1056F000408151810281138148175907E0F0481712
:10570000590799F4109761F012960C93129713961B
:105710001C933296CF01DF91CF911F910F91089585
:105720000093B1041093B204F4CF2115310551F068
:105730004217530738F0A901DB019A01BD01DF01CF
:10574000F801C1CFEF01F9CF9093B2048093B10477
:10575000CDCFFE01E20FF31F8193919322503109C7
:1057600039832883D7CF2091AF043091B004232B05
:1057700041F420911A0130911B013093B004209321
:10578000AF0420911801309119012115310541F420
:105790002DB73EB740911C0150911D01241B350BC4
:1057A000E091AF04F091B004E217F307A0F42E1BD0
:1057B0003F0B2817390778F0AC014E5F5F4F241775
:1057C000350748F04E0F5F1F5093B0044093AF046D
:1057D000819391939FCFF0E0E0E09CCFCF93DF9354
:1057E0000097E9F0FC01329713821282A091B10474
:1057F000B091B204ED0130E020E01097A1F42081D7
:105800003181820F931F2091AF043091B00428178B
:10581000390709F061C0F093B004E093AF04DF9161
:10582000CF910895EA01CE17DF07E8F54A815B8141
:105830009E0141155105B1F7E901FB83EA834991C6
:105840005991C40FD51FEC17FD0761F48081918138
:105850000296840F951FE901998388838281938141
:105860009B838A83F0E0E0E012968D919C911397E0
:105870000097B9F52D913C911197CD010296820FB9
:10588000931F2091AF043091B0042817390739F6DF
:10589000309751F51092B2041092B104B093B00455
:1058A000A093AF04BCCFD383C28340815181840FC6
:1058B000951FC817D90761F44E5F5F4F88819981A2
:1058C000480F591F518340838A819B819383828330
:1058D0002115310509F0B0CFF093B204E093B10483
:1058E0009ECFFD01DC01C0CF13821282D7CFB0E082
:1058F000A0E0EDE7FCE20C94E4298C01009751F460
:10590000CB010E94522B8C01C801CDB7DEB7E0E17C
:105910000C94002AFC01E60FF71F9C01225031096C
:10592000E217F30708F49DC0D901CD91DC911197DE
:10593000C617D70798F0C530D10530F3CE010497CC
:105940008617970708F3C61BD70B2297C193D193ED
:105950006D937C93CF010E94EE2BD6CF5B01AC1AE6
:10596000BD0A4C018C0E9D1EA091B104B091B204F1
:10597000512C412CF12CE12C109731F58091AF0482
:105980009091B0048815990509F05CC04616570639
:1059900008F058C08091180190911901009741F4C6
:1059A0008DB79EB740911C0150911D01841B950B32
:1059B000E817F90708F055C0F093B004E093AF047E
:1059C000F90171836083A0CF8D919C9111971296FC
:1059D0006C90129713967C901397A815B90559F5FA
:1059E0006C0142E0C40ED11CCA14DB0420F1AC01EE
:1059F0004A195B09DA011296159780F06282738268
:105A000051834083D9016D937C93E114F10471F0CB
:105A1000D7011396FC93EE93129776CF22968C0FB4
:105A20009D1FF90191838083F301EFCFF093B204BE
:105A3000E093B10469CF4816590608F42C017D01A2
:105A4000D3019ACFCB010E94522B7C01009749F0E1
:105A5000AE01B8010E94392DC8010E94EE2B8701CA
:105A600053CF10E000E050CF81E090E0F8940C9428
:105A7000FE2FFB01DC0102C001900D92415050400D
:105A8000D8F70895FC018191861721F08823D9F772
:105A9000992708953197CF010895FB01DC018D917D
:105AA000019080190110D9F3990B0895FB01DC01D5
:105AB00001900D920020E1F70895AEE0B0E0E3E63A
:105AC000FDE20C94F0290D891E8986E08C831A83EF
:105AD00009838FEF9FE79E838D83AE01475E5F4F03
